{
  "contractName": "PostEntity",
  "abi": [
    {
      "inputs": [],
      "name": "likeIdCounter",
      "outputs": [
        {
          "internalType": "uint256",
          "name": "",
          "type": "uint256"
        }
      ],
      "stateMutability": "view",
      "type": "function"
    },
    {
      "inputs": [
        {
          "internalType": "uint256",
          "name": "",
          "type": "uint256"
        }
      ],
      "name": "likes",
      "outputs": [
        {
          "internalType": "uint256",
          "name": "likeId",
          "type": "uint256"
        },
        {
          "internalType": "uint256",
          "name": "postId",
          "type": "uint256"
        },
        {
          "internalType": "address",
          "name": "userId",
          "type": "address"
        }
      ],
      "stateMutability": "view",
      "type": "function"
    },
    {
      "inputs": [],
      "name": "postIdCounter",
      "outputs": [
        {
          "internalType": "uint256",
          "name": "",
          "type": "uint256"
        }
      ],
      "stateMutability": "view",
      "type": "function"
    },
    {
      "inputs": [
        {
          "internalType": "uint256",
          "name": "",
          "type": "uint256"
        }
      ],
      "name": "posts",
      "outputs": [
        {
          "internalType": "uint256",
          "name": "postId",
          "type": "uint256"
        },
        {
          "internalType": "string",
          "name": "userId",
          "type": "string"
        },
        {
          "internalType": "string",
          "name": "content",
          "type": "string"
        },
        {
          "internalType": "int256",
          "name": "likes",
          "type": "int256"
        },
        {
          "internalType": "uint256",
          "name": "comments",
          "type": "uint256"
        },
        {
          "internalType": "uint256",
          "name": "timestamp",
          "type": "uint256"
        }
      ],
      "stateMutability": "view",
      "type": "function"
    },
    {
      "inputs": [],
      "name": "removeMe",
      "outputs": [
        {
          "internalType": "uint256",
          "name": "postId",
          "type": "uint256"
        },
        {
          "internalType": "string",
          "name": "userId",
          "type": "string"
        },
        {
          "internalType": "string",
          "name": "content",
          "type": "string"
        },
        {
          "internalType": "int256",
          "name": "likes",
          "type": "int256"
        },
        {
          "internalType": "uint256",
          "name": "comments",
          "type": "uint256"
        },
        {
          "internalType": "uint256",
          "name": "timestamp",
          "type": "uint256"
        }
      ],
      "stateMutability": "view",
      "type": "function"
    },
    {
      "inputs": [
        {
          "internalType": "string",
          "name": "_userId",
          "type": "string"
        },
        {
          "internalType": "string",
          "name": "_content",
          "type": "string"
        },
        {
          "internalType": "uint256",
          "name": "_timestamp",
          "type": "uint256"
        }
      ],
      "name": "createPost",
      "outputs": [],
      "stateMutability": "nonpayable",
      "type": "function"
    },
    {
      "inputs": [
        {
          "internalType": "uint256",
          "name": "_postId",
          "type": "uint256"
        }
      ],
      "name": "getPost",
      "outputs": [
        {
          "internalType": "uint256",
          "name": "",
          "type": "uint256"
        },
        {
          "internalType": "string",
          "name": "",
          "type": "string"
        },
        {
          "internalType": "string",
          "name": "",
          "type": "string"
        },
        {
          "internalType": "int256",
          "name": "",
          "type": "int256"
        },
        {
          "internalType": "uint256",
          "name": "",
          "type": "uint256"
        },
        {
          "internalType": "uint256",
          "name": "",
          "type": "uint256"
        }
      ],
      "stateMutability": "view",
      "type": "function"
    },
    {
      "inputs": [],
      "name": "getAllPost",
      "outputs": [
        {
          "components": [
            {
              "internalType": "uint256",
              "name": "postId",
              "type": "uint256"
            },
            {
              "internalType": "string",
              "name": "userId",
              "type": "string"
            },
            {
              "internalType": "string",
              "name": "content",
              "type": "string"
            },
            {
              "internalType": "int256",
              "name": "likes",
              "type": "int256"
            },
            {
              "internalType": "uint256",
              "name": "comments",
              "type": "uint256"
            },
            {
              "internalType": "uint256",
              "name": "timestamp",
              "type": "uint256"
            }
          ],
          "internalType": "struct PostEntity.Post[]",
          "name": "",
          "type": "tuple[]"
        }
      ],
      "stateMutability": "view",
      "type": "function"
    },
    {
      "inputs": [
        {
          "internalType": "uint256",
          "name": "_postId",
          "type": "uint256"
        }
      ],
      "name": "getLike",
      "outputs": [
        {
          "internalType": "address",
          "name": "",
          "type": "address"
        }
      ],
      "stateMutability": "view",
      "type": "function"
    },
    {
      "inputs": [
        {
          "internalType": "uint256",
          "name": "_postId",
          "type": "uint256"
        },
        {
          "internalType": "address",
          "name": "_userId",
          "type": "address"
        }
      ],
      "name": "addAddressInLike",
      "outputs": [],
      "stateMutability": "nonpayable",
      "type": "function"
    },
    {
      "inputs": [
        {
          "internalType": "uint256",
          "name": "_id",
          "type": "uint256"
        },
        {
          "internalType": "int256",
          "name": "like",
          "type": "int256"
        }
      ],
      "name": "updateLikeInPost",
      "outputs": [],
      "stateMutability": "nonpayable",
      "type": "function"
    },
    {
      "inputs": [
        {
          "internalType": "uint256",
          "name": "_id",
          "type": "uint256"
        }
      ],
      "name": "deletePost",
      "outputs": [],
      "stateMutability": "nonpayable",
      "type": "function"
    }
  ],
  "bytecode": "0x608060405234801561001057600080fd5b50611dab806100206000396000f3fe608060405234801561001057600080fd5b50600436106100b45760003560e01c80636a571859116100715780636a571859146101a7578063742d931a146101c55780637e9dffe6146101e15780639d08f4a914610213578063d270075b14610236578063da7d9d1014610254576100b4565b8063094cd5ee146100b95780630b1e7f83146100d55780631ad207091461010a5780632d742717146101265780632ee2d8641461015657806340731c2414610172575b600080fd5b6100d360048036038101906100ce91906110fe565b610272565b005b6100ef60048036038101906100ea91906110fe565b61058b565b604051610101969594939291906111e3565b60405180910390f35b610124600480360381019061011f919061127e565b6106d7565b005b610140600480360381019061013b91906110fe565b6107f6565b60405161014d91906112ff565b60405180910390f35b610170600480360381019061016b9190611346565b610836565b005b61018c600480360381019061018791906110fe565b6109b3565b60405161019e969594939291906111e3565b60405180910390f35b6101af610bb1565b6040516101bc9190611386565b60405180910390f35b6101df60048036038101906101da91906114d6565b610bb7565b005b6101fb60048036038101906101f691906110fe565b610d22565b60405161020a93929190611561565b60405180910390f35b61021b610d6c565b60405161022d969594939291906111e3565b60405180910390f35b61023e610ea6565b60405161024b9190611386565b60405180910390f35b61025c610eac565b6040516102699190611752565b60405180910390f35b600080600083815260200190815260200160002060000154036102ca576040517f08c379a00000000000000000000000000000000000000000000000000000000081526004016102c1906117c0565b60405180910390fd5b6000808281526020019081526020016000206000808201600090556001820160006102f59190611057565b6002820160006103059190611057565b600382016000905560048201600090556005820160009055505060005b60028054905081101561051c578160028281548110610344576103436117e0565b5b90600052602060002090600602016000015403610509576002818154811061036f5761036e6117e0565b5b90600052602060002090600602016006600082015481600001556001820181600101908161039d9190611a31565b50600282018160020190816103b29190611a31565b50600382015481600301556004820154816004015560058201548160050155905050600260016002805490506103e89190611b48565b815481106103f9576103f86117e0565b5b90600052602060002090600602016002828154811061041b5761041a6117e0565b5b906000526020600020906006020160008201548160000155600182018160010190816104479190611a31565b506002820181600201908161045c9190611a31565b506003820154816003015560048201548160040155600582015481600501559050506006600260016002805490506104949190611b48565b815481106104a5576104a46117e0565b5b906000526020600020906006020160008201548160000155600182018160010190816104d19190611a31565b50600282018160020190816104e69190611a31565b506003820154816003015560048201548160040155600582015481600501559050505b808061051490611b7c565b915050610322565b50600280548061052f5761052e611bc4565b5b600190038181906000526020600020906006020160008082016000905560018201600061055c9190611057565b60028201600061056c9190611057565b6003820160009055600482016000905560058201600090555050905550565b60006020528060005260406000206000915090508060000154908060010180546105b49061183e565b80601f01602080910402602001604051908101604052809291908181526020018280546105e09061183e565b801561062d5780601f106106025761010080835404028352916020019161062d565b820191906000526020600020905b81548152906001019060200180831161061057829003601f168201915b5050505050908060020180546106429061183e565b80601f016020809104026020016040519081016040528092919081815260200182805461066e9061183e565b80156106bb5780601f10610690576101008083540402835291602001916106bb565b820191906000526020600020905b81548152906001019060200180831161069e57829003601f168201915b5050505050908060030154908060040154908060050154905086565b6000806000848152602001908152602001600020600001540361072f576040517f08c379a0000000000000000000000000000000000000000000000000000000008152600401610726906117c0565b60405180910390fd5b600080600084815260200190815260200160002090508181600301546107559190611bf3565b816003018190555060005b6002805490508110156107f0578360028281548110610782576107816117e0565b5b906000526020600020906006020160000154036107dd576000600282815481106107af576107ae6117e0565b5b906000526020600020906006020190508381600301546107cf9190611bf3565b8160030181905550506107f0565b80806107e890611b7c565b915050610760565b50505050565b60006003600083815260200190815260200160002060020160009054906101000a900473ffffffffffffffffffffffffffffffffffffffff169050919050565b6004600081548092919061084990611b7c565b9190505550604051806060016040528060045481526020018381526020018273ffffffffffffffffffffffffffffffffffffffff16815250600360006004548152602001908152602001600020600082015181600001556020820151816001015560408201518160020160006101000a81548173ffffffffffffffffffffffffffffffffffffffff021916908373ffffffffffffffffffffffffffffffffffffffff1602179055509050506005604051806060016040528060045481526020018481526020018373ffffffffffffffffffffffffffffffffffffffff168152509080600181540180825580915050600190039060005260206000209060030201600090919091909150600082015181600001556020820151816001015560408201518160020160006101000a81548173ffffffffffffffffffffffffffffffffffffffff021916908373ffffffffffffffffffffffffffffffffffffffff16021790555050505050565b60006060806000806000600154871115610a02576040517f08c379a00000000000000000000000000000000000000000000000000000000081526004016109f990611c83565b60405180910390fd5b600080888152602001908152602001600020600001546000808981526020019081526020016000206001016000808a81526020019081526020016000206002016000808b8152602001908152602001600020600301546000808c8152602001908152602001600020600401546000808d815260200190815260200160002060050154848054610a909061183e565b80601f0160208091040260200160405190810160405280929190818152602001828054610abc9061183e565b8015610b095780601f10610ade57610100808354040283529160200191610b09565b820191906000526020600020905b815481529060010190602001808311610aec57829003601f168201915b50505050509450838054610b1c9061183e565b80601f0160208091040260200160405190810160405280929190818152602001828054610b489061183e565b8015610b955780601f10610b6a57610100808354040283529160200191610b95565b820191906000526020600020905b815481529060010190602001808311610b7857829003601f168201915b5050505050935095509550955095509550955091939550919395565b60015481565b60016000815480929190610bca90611b7c565b91905055506040518060c0016040528060015481526020018481526020018381526020016000815260200160008152602001828152506000806001548152602001908152602001600020600082015181600001556020820151816001019081610c339190611ca3565b506040820151816002019081610c499190611ca3565b50606082015181600301556080820151816004015560a0820151816005015590505060026040518060c0016040528060015481526020018581526020018481526020016000815260200160008152602001838152509080600181540180825580915050600190039060005260206000209060060201600090919091909150600082015181600001556020820151816001019081610ce69190611ca3565b506040820151816002019081610cfc9190611ca3565b50606082015181600301556080820151816004015560a082015181600501555050505050565b60036020528060005260406000206000915090508060000154908060010154908060020160009054906101000a900473ffffffffffffffffffffffffffffffffffffffff16905083565b6006806000015490806001018054610d839061183e565b80601f0160208091040260200160405190810160405280929190818152602001828054610daf9061183e565b8015610dfc5780601f10610dd157610100808354040283529160200191610dfc565b820191906000526020600020905b815481529060010190602001808311610ddf57829003601f168201915b505050505090806002018054610e119061183e565b80601f0160208091040260200160405190810160405280929190818152602001828054610e3d9061183e565b8015610e8a5780601f10610e5f57610100808354040283529160200191610e8a565b820191906000526020600020905b815481529060010190602001808311610e6d57829003601f168201915b5050505050908060030154908060040154908060050154905086565b60045481565b60606002805480602002602001604051908101604052809291908181526020016000905b8282101561104e57838290600052602060002090600602016040518060c001604052908160008201548152602001600182018054610f0d9061183e565b80601f0160208091040260200160405190810160405280929190818152602001828054610f399061183e565b8015610f865780601f10610f5b57610100808354040283529160200191610f86565b820191906000526020600020905b815481529060010190602001808311610f6957829003601f168201915b50505050508152602001600282018054610f9f9061183e565b80601f0160208091040260200160405190810160405280929190818152602001828054610fcb9061183e565b80156110185780601f10610fed57610100808354040283529160200191611018565b820191906000526020600020905b815481529060010190602001808311610ffb57829003601f168201915b50505050508152602001600382015481526020016004820154815260200160058201548152505081526020019060010190610ed0565b50505050905090565b5080546110639061183e565b6000825580601f106110755750611094565b601f0160209004906000526020600020908101906110939190611097565b5b50565b5b808211156110b0576000816000905550600101611098565b5090565b6000604051905090565b600080fd5b600080fd5b6000819050919050565b6110db816110c8565b81146110e657600080fd5b50565b6000813590506110f8816110d2565b92915050565b600060208284031215611114576111136110be565b5b6000611122848285016110e9565b91505092915050565b611134816110c8565b82525050565b600081519050919050565b600082825260208201905092915050565b60005b83811015611174578082015181840152602081019050611159565b60008484015250505050565b6000601f19601f8301169050919050565b600061119c8261113a565b6111a68185611145565b93506111b6818560208601611156565b6111bf81611180565b840191505092915050565b6000819050919050565b6111dd816111ca565b82525050565b600060c0820190506111f8600083018961112b565b818103602083015261120a8188611191565b9050818103604083015261121e8187611191565b905061122d60608301866111d4565b61123a608083018561112b565b61124760a083018461112b565b979650505050505050565b61125b816111ca565b811461126657600080fd5b50565b60008135905061127881611252565b92915050565b60008060408385031215611295576112946110be565b5b60006112a3858286016110e9565b92505060206112b485828601611269565b9150509250929050565b600073ffffffffffffffffffffffffffffffffffffffff82169050919050565b60006112e9826112be565b9050919050565b6112f9816112de565b82525050565b600060208201905061131460008301846112f0565b92915050565b611323816112de565b811461132e57600080fd5b50565b6000813590506113408161131a565b92915050565b6000806040838503121561135d5761135c6110be565b5b600061136b858286016110e9565b925050602061137c85828601611331565b9150509250929050565b600060208201905061139b600083018461112b565b92915050565b600080fd5b600080fd5b7f4e487b7100000000000000000000000000000000000000000000000000000000600052604160045260246000fd5b6113e382611180565b810181811067ffffffffffffffff82111715611402576114016113ab565b5b80604052505050565b60006114156110b4565b905061142182826113da565b919050565b600067ffffffffffffffff821115611441576114406113ab565b5b61144a82611180565b9050602081019050919050565b82818337600083830152505050565b600061147961147484611426565b61140b565b905082815260208101848484011115611495576114946113a6565b5b6114a0848285611457565b509392505050565b600082601f8301126114bd576114bc6113a1565b5b81356114cd848260208601611466565b91505092915050565b6000806000606084860312156114ef576114ee6110be565b5b600084013567ffffffffffffffff81111561150d5761150c6110c3565b5b611519868287016114a8565b935050602084013567ffffffffffffffff81111561153a576115396110c3565b5b611546868287016114a8565b9250506040611557868287016110e9565b9150509250925092565b6000606082019050611576600083018661112b565b611583602083018561112b565b61159060408301846112f0565b949350505050565b600081519050919050565b600082825260208201905092915050565b6000819050602082019050919050565b6115cd816110c8565b82525050565b600082825260208201905092915050565b60006115ef8261113a565b6115f981856115d3565b9350611609818560208601611156565b61161281611180565b840191505092915050565b611626816111ca565b82525050565b600060c08301600083015161164460008601826115c4565b506020830151848203602086015261165c82826115e4565b9150506040830151848203604086015261167682826115e4565b915050606083015161168b606086018261161d565b50608083015161169e60808601826115c4565b5060a08301516116b160a08601826115c4565b508091505092915050565b60006116c8838361162c565b905092915050565b6000602082019050919050565b60006116e882611598565b6116f281856115a3565b935083602082028501611704856115b4565b8060005b85811015611740578484038952815161172185826116bc565b945061172c836116d0565b925060208a01995050600181019050611708565b50829750879550505050505092915050565b6000602082019050818103600083015261176c81846116dd565b905092915050565b7f506f7374206973206e6f7420617661696c61626c650000000000000000000000600082015250565b60006117aa601583611145565b91506117b582611774565b602082019050919050565b600060208201905081810360008301526117d98161179d565b9050919050565b7f4e487b7100000000000000000000000000000000000000000000000000000000600052603260045260246000fd5b7f4e487b7100000000000000000000000000000000000000000000000000000000600052602260045260246000fd5b6000600282049050600182168061185657607f821691505b6020821081036118695761186861180f565b5b50919050565b60008154905061187e8161183e565b9050919050565b60008190508160005260206000209050919050565b60006020601f8301049050919050565b600082821b905092915050565b6000600883026118e77fffffffffffffffffffffffffffffffffffffffffffffffffffffffffffffffff826118aa565b6118f186836118aa565b95508019841693508086168417925050509392505050565b6000819050919050565b600061192e611929611924846110c8565b611909565b6110c8565b9050919050565b6000819050919050565b61194883611913565b61195c61195482611935565b8484546118b7565b825550505050565b600090565b611971611964565b61197c81848461193f565b505050565b5b818110156119a057611995600082611969565b600181019050611982565b5050565b601f8211156119e5576119b681611885565b6119bf8461189a565b810160208510156119ce578190505b6119e26119da8561189a565b830182611981565b50505b505050565b600082821c905092915050565b6000611a08600019846008026119ea565b1980831691505092915050565b6000611a2183836119f7565b9150826002028217905092915050565b818103611a3f575050611b17565b611a488261186f565b67ffffffffffffffff811115611a6157611a606113ab565b5b611a6b825461183e565b611a768282856119a4565b6000601f831160018114611aa55760008415611a93578287015490505b611a9d8582611a15565b865550611b10565b601f198416611ab387611885565b9650611abe86611885565b60005b82811015611ae657848901548255600182019150600185019450602081019050611ac1565b86831015611b035784890154611aff601f8916826119f7565b8355505b6001600288020188555050505b5050505050505b565b7f4e487b7100000000000000000000000000000000000000000000000000000000600052601160045260246000fd5b6000611b53826110c8565b9150611b5e836110c8565b9250828203905081811115611b7657611b75611b19565b5b92915050565b6000611b87826110c8565b91507fffffffffffffffffffffffffffffffffffffffffffffffffffffffffffffffff8203611bb957611bb8611b19565b5b600182019050919050565b7f4e487b7100000000000000000000000000000000000000000000000000000000600052603160045260246000fd5b6000611bfe826111ca565b9150611c09836111ca565b925082820190508281121560008312168382126000841215161715611c3157611c30611b19565b5b92915050565b7f496e76616c696420706f73742049440000000000000000000000000000000000600082015250565b6000611c6d600f83611145565b9150611c7882611c37565b602082019050919050565b60006020820190508181036000830152611c9c81611c60565b9050919050565b611cac8261113a565b67ffffffffffffffff811115611cc557611cc46113ab565b5b611ccf825461183e565b611cda8282856119a4565b600060209050601f831160018114611d0d5760008415611cfb578287015190505b611d058582611a15565b865550611d6d565b601f198416611d1b86611885565b60005b82811015611d4357848901518255600182019150602085019450602081019050611d1e565b86831015611d605784890151611d5c601f8916826119f7565b8355505b6001600288020188555050505b50505050505056fea2646970667358221220c6c35aeb6664bac48ec3c86f3cb57282c9ee900ede164fb3e2f025ea1fc1f9b664736f6c63430008130033",
  "immutableReferences": {},
  "source": "// SPDX-License-Identifier: UNLICENSED\r\npragma solidity ^0.8.0;\r\n\r\ncontract PostEntity {\r\n\r\n    struct Post {\r\n        uint256 postId;\r\n        string userId;\r\n        string content;\r\n        int likes;\r\n        uint comments;\r\n        uint timestamp;\r\n    }\r\n\r\n    mapping(uint256 => Post) public posts;\r\n    uint256 public postIdCounter;\r\n\r\n    Post [] listPost;\r\n\r\n    struct Like {\r\n        uint likeId;\r\n        uint postId;\r\n        address userId;\r\n    }\r\n\r\n    mapping(uint => Like) public likes;\r\n    uint public likeIdCounter;\r\n\r\n    Like [] listLike;\r\n\r\n    Post public removeMe;\r\n\r\n    function createPost(string memory _userId, string memory _content, uint _timestamp) public {\r\n        postIdCounter++;\r\n        posts[postIdCounter] = Post(postIdCounter, _userId, _content, 0, 0, _timestamp);\r\n        listPost.push(Post(postIdCounter, _userId, _content, 0, 0, _timestamp));\r\n    }\r\n\r\n    function getPost(uint256 _postId) public view returns (uint256, string memory, string memory, int, uint, uint) {\r\n        require(_postId <= postIdCounter, \"Invalid post ID\");\r\n        return (posts[_postId].postId, posts[_postId].userId, posts[_postId].content, posts[_postId].likes, posts[_postId].comments, posts[_postId].timestamp);\r\n    }\r\n\r\n    function getAllPost() public view returns (Post[] memory){\r\n        return listPost;\r\n    }\r\n\r\n    function getLike(uint _postId) public view returns (address) {\r\n        return (likes[_postId].userId);\r\n    }\r\n\r\n    function addAddressInLike(uint _postId, address _userId) public {\r\n        likeIdCounter++;\r\n        likes[likeIdCounter] = Like(likeIdCounter, _postId, _userId);\r\n        listLike.push(Like(likeIdCounter, _postId, _userId));\r\n    }\r\n\r\n    function updateLikeInPost(uint _id, int like) public {\r\n        require(posts[_id].postId != 0, \"Post is not available\");\r\n\r\n        Post storage newPostMap = posts[_id];\r\n        newPostMap.likes = newPostMap.likes + like;\r\n\r\n        for (uint i = 0; i < listPost.length; i++) {\r\n            if (listPost[i].postId == _id) {\r\n                Post storage newPost = listPost[i];\r\n                newPost.likes = newPost.likes + like;\r\n                break;\r\n            }\r\n        }\r\n    }\r\n\r\n    function deletePost(uint256 _id) public {\r\n        require(posts[_id].postId != 0, \"Post is not available\");\r\n        delete posts[_id];\r\n        for (uint i = 0; i < listPost.length; i++) {\r\n            if (listPost[i].postId == _id) {\r\n                removeMe = listPost[i];\r\n                listPost[i] = listPost[listPost.length - 1];\r\n                listPost[listPost.length - 1] = removeMe;\r\n            }\r\n        }\r\n        listPost.pop();\r\n    }\r\n\r\n}",
  "sourcePath": "D:\\Project Blockchain\\PolygonHackathon\\share-dapp\\contracts\\PostEntity.sol",
  "compiler": {
    "name": "solc",
    "version": "0.8.19+commit.7dd6d404.Emscripten.clang"
  },
  "schemaVersion": "3.4.13",
  "updatedAt": "2023-05-23T00:47:46.292Z",
  "devdoc": {
    "kind": "dev",
    "methods": {},
    "version": 1
  },
  "userdoc": {
    "kind": "user",
    "methods": {},
    "version": 1
  }
}