{
  "contractName": "PostEntity",
  "abi": [
    {
      "inputs": [],
      "name": "commentIdCounter",
      "outputs": [
        {
          "internalType": "uint256",
          "name": "",
          "type": "uint256"
        }
      ],
      "stateMutability": "view",
      "type": "function",
      "constant": true
    },
    {
      "inputs": [
        {
          "internalType": "uint256",
          "name": "",
          "type": "uint256"
        },
        {
          "internalType": "uint256",
          "name": "",
          "type": "uint256"
        }
      ],
      "name": "comments",
      "outputs": [
        {
          "internalType": "uint256",
          "name": "commentId",
          "type": "uint256"
        },
        {
          "internalType": "uint256",
          "name": "postId",
          "type": "uint256"
        },
        {
          "internalType": "string",
          "name": "userId",
          "type": "string"
        },
        {
          "internalType": "string",
          "name": "content",
          "type": "string"
        },
        {
          "internalType": "uint256",
          "name": "timestamp",
          "type": "uint256"
        }
      ],
      "stateMutability": "view",
      "type": "function",
      "constant": true
    },
    {
      "inputs": [
        {
          "internalType": "uint256",
          "name": "",
          "type": "uint256"
        }
      ],
      "name": "likes",
      "outputs": [
        {
          "internalType": "uint256",
          "name": "postId",
          "type": "uint256"
        },
        {
          "internalType": "address",
          "name": "userId",
          "type": "address"
        }
      ],
      "stateMutability": "view",
      "type": "function",
      "constant": true
    },
    {
      "inputs": [],
      "name": "postIdCounter",
      "outputs": [
        {
          "internalType": "uint256",
          "name": "",
          "type": "uint256"
        }
      ],
      "stateMutability": "view",
      "type": "function",
      "constant": true
    },
    {
      "inputs": [
        {
          "internalType": "uint256",
          "name": "",
          "type": "uint256"
        }
      ],
      "name": "posts",
      "outputs": [
        {
          "internalType": "uint256",
          "name": "postId",
          "type": "uint256"
        },
        {
          "internalType": "string",
          "name": "userId",
          "type": "string"
        },
        {
          "internalType": "string",
          "name": "content",
          "type": "string"
        },
        {
          "internalType": "int256",
          "name": "likes",
          "type": "int256"
        },
        {
          "internalType": "uint256",
          "name": "comments",
          "type": "uint256"
        },
        {
          "internalType": "uint256",
          "name": "timestamp",
          "type": "uint256"
        }
      ],
      "stateMutability": "view",
      "type": "function",
      "constant": true
    },
    {
      "inputs": [],
      "name": "removeComment",
      "outputs": [
        {
          "internalType": "uint256",
          "name": "commentId",
          "type": "uint256"
        },
        {
          "internalType": "uint256",
          "name": "postId",
          "type": "uint256"
        },
        {
          "internalType": "string",
          "name": "userId",
          "type": "string"
        },
        {
          "internalType": "string",
          "name": "content",
          "type": "string"
        },
        {
          "internalType": "uint256",
          "name": "timestamp",
          "type": "uint256"
        }
      ],
      "stateMutability": "view",
      "type": "function",
      "constant": true
    },
    {
      "inputs": [],
      "name": "removeMe",
      "outputs": [
        {
          "internalType": "uint256",
          "name": "postId",
          "type": "uint256"
        },
        {
          "internalType": "string",
          "name": "userId",
          "type": "string"
        },
        {
          "internalType": "string",
          "name": "content",
          "type": "string"
        },
        {
          "internalType": "int256",
          "name": "likes",
          "type": "int256"
        },
        {
          "internalType": "uint256",
          "name": "comments",
          "type": "uint256"
        },
        {
          "internalType": "uint256",
          "name": "timestamp",
          "type": "uint256"
        }
      ],
      "stateMutability": "view",
      "type": "function",
      "constant": true
    },
    {
      "inputs": [
        {
          "internalType": "string",
          "name": "_userId",
          "type": "string"
        },
        {
          "internalType": "string",
          "name": "_content",
          "type": "string"
        },
        {
          "internalType": "uint256",
          "name": "_timestamp",
          "type": "uint256"
        }
      ],
      "name": "createPost",
      "outputs": [],
      "stateMutability": "nonpayable",
      "type": "function"
    },
    {
      "inputs": [
        {
          "internalType": "uint256",
          "name": "_postId",
          "type": "uint256"
        }
      ],
      "name": "getPost",
      "outputs": [
        {
          "internalType": "uint256",
          "name": "",
          "type": "uint256"
        },
        {
          "internalType": "string",
          "name": "",
          "type": "string"
        },
        {
          "internalType": "string",
          "name": "",
          "type": "string"
        },
        {
          "internalType": "int256",
          "name": "",
          "type": "int256"
        },
        {
          "internalType": "uint256",
          "name": "",
          "type": "uint256"
        },
        {
          "internalType": "uint256",
          "name": "",
          "type": "uint256"
        }
      ],
      "stateMutability": "view",
      "type": "function",
      "constant": true
    },
    {
      "inputs": [],
      "name": "getAllPost",
      "outputs": [
        {
          "components": [
            {
              "internalType": "uint256",
              "name": "postId",
              "type": "uint256"
            },
            {
              "internalType": "string",
              "name": "userId",
              "type": "string"
            },
            {
              "internalType": "string",
              "name": "content",
              "type": "string"
            },
            {
              "internalType": "int256",
              "name": "likes",
              "type": "int256"
            },
            {
              "internalType": "uint256",
              "name": "comments",
              "type": "uint256"
            },
            {
              "internalType": "uint256",
              "name": "timestamp",
              "type": "uint256"
            }
          ],
          "internalType": "struct PostEntity.Post[]",
          "name": "",
          "type": "tuple[]"
        }
      ],
      "stateMutability": "view",
      "type": "function",
      "constant": true
    },
    {
      "inputs": [
        {
          "internalType": "uint256",
          "name": "_postId",
          "type": "uint256"
        }
      ],
      "name": "getLike",
      "outputs": [
        {
          "internalType": "address",
          "name": "",
          "type": "address"
        },
        {
          "internalType": "uint256",
          "name": "",
          "type": "uint256"
        }
      ],
      "stateMutability": "view",
      "type": "function",
      "constant": true
    },
    {
      "inputs": [
        {
          "internalType": "uint256",
          "name": "_postId",
          "type": "uint256"
        },
        {
          "internalType": "address",
          "name": "_userId",
          "type": "address"
        }
      ],
      "name": "addAddressInLike",
      "outputs": [],
      "stateMutability": "nonpayable",
      "type": "function"
    },
    {
      "inputs": [
        {
          "internalType": "uint256",
          "name": "_id",
          "type": "uint256"
        },
        {
          "internalType": "int256",
          "name": "like",
          "type": "int256"
        }
      ],
      "name": "updateLikeInPost",
      "outputs": [],
      "stateMutability": "nonpayable",
      "type": "function"
    },
    {
      "inputs": [
        {
          "internalType": "uint256",
          "name": "_id",
          "type": "uint256"
        },
        {
          "internalType": "uint256",
          "name": "comment",
          "type": "uint256"
        }
      ],
      "name": "updateCommentInPost",
      "outputs": [],
      "stateMutability": "nonpayable",
      "type": "function"
    },
    {
      "inputs": [
        {
          "internalType": "uint256",
          "name": "_id",
          "type": "uint256"
        }
      ],
      "name": "deleteLike",
      "outputs": [],
      "stateMutability": "nonpayable",
      "type": "function"
    },
    {
      "inputs": [
        {
          "internalType": "uint256",
          "name": "_id",
          "type": "uint256"
        }
      ],
      "name": "deletePost",
      "outputs": [],
      "stateMutability": "nonpayable",
      "type": "function"
    },
    {
      "inputs": [
        {
          "internalType": "uint256",
          "name": "_postId",
          "type": "uint256"
        },
        {
          "internalType": "string",
          "name": "_userId",
          "type": "string"
        },
        {
          "internalType": "string",
          "name": "_content",
          "type": "string"
        },
        {
          "internalType": "uint256",
          "name": "_timestamp",
          "type": "uint256"
        }
      ],
      "name": "createComment",
      "outputs": [],
      "stateMutability": "nonpayable",
      "type": "function"
    },
    {
      "inputs": [
        {
          "internalType": "uint256",
          "name": "_postId",
          "type": "uint256"
        }
      ],
      "name": "getComment",
      "outputs": [],
      "stateMutability": "nonpayable",
      "type": "function"
    },
    {
      "inputs": [],
      "name": "getComment",
      "outputs": [
        {
          "components": [
            {
              "internalType": "uint256",
              "name": "commentId",
              "type": "uint256"
            },
            {
              "internalType": "uint256",
              "name": "postId",
              "type": "uint256"
            },
            {
              "internalType": "string",
              "name": "userId",
              "type": "string"
            },
            {
              "internalType": "string",
              "name": "content",
              "type": "string"
            },
            {
              "internalType": "uint256",
              "name": "timestamp",
              "type": "uint256"
            }
          ],
          "internalType": "struct PostEntity.Comment[]",
          "name": "",
          "type": "tuple[]"
        }
      ],
      "stateMutability": "view",
      "type": "function",
      "constant": true
    },
    {
      "inputs": [
        {
          "internalType": "uint256",
          "name": "_id",
          "type": "uint256"
        }
      ],
      "name": "deleteComment",
      "outputs": [],
      "stateMutability": "nonpayable",
      "type": "function"
    }
  ],
  "bytecode": "0x608060405234801561001057600080fd5b50612b34806100206000396000f3fe608060405234801561001057600080fd5b506004361061012c5760003560e01c8063742d931a116100ad5780639d08f4a9116100715780639d08f4a91461033b578063aa56b3eb1461035e578063cc7730441461037a578063da7d9d1014610398578063fc6c776f146103b65761012c565b8063742d931a146102925780637d0b1026146102ae5780637e9dffe6146102ca5780637f730b70146102fb578063894a94f6146103195761012c565b80631ad20709116100f45780631ad20709146101d65780632d742717146101f25780632ee2d8641461022357806340731c241461023f5780636a571859146102745761012c565b80630800e30014610131578063093521be1461014d578063094cd5ee146101695780630a0e5046146101855780630b1e7f83146101a1575b600080fd5b61014b60048036038101906101469190611bb2565b6103ea565b005b61016760048036038101906101629190611bb2565b6104e3565b005b610183600480360381019061017e9190611bb2565b61052b565b005b61019f600480360381019061019a9190611d25565b610844565b005b6101bb60048036038101906101b69190611bb2565b610902565b6040516101cd96959493929190611e6b565b60405180910390f35b6101f060048036038101906101eb9190611f06565b610a4e565b005b61020c60048036038101906102079190611bb2565b610b6d565b60405161021a929190611f87565b60405180910390f35b61023d60048036038101906102389190611fdc565b610bb1565b005b61025960048036038101906102549190611bb2565b610c47565b60405161026b96959493929190611e6b565b60405180910390f35b61027c610e45565b604051610289919061201c565b60405180910390f35b6102ac60048036038101906102a79190612037565b610e4b565b005b6102c860048036038101906102c39190611bb2565b610fb6565b005b6102e460048036038101906102df9190611bb2565b6111fc565b6040516102f29291906120c2565b60405180910390f35b610303611240565b604051610310919061201c565b60405180910390f35b610321611246565b6040516103329594939291906120eb565b60405180910390f35b61034361137a565b60405161035596959493929190611e6b565b60405180910390f35b6103786004803603810190610373919061214c565b6114b4565b005b6103826115d3565b60405161038f9190612324565b60405180910390f35b6103a0611774565b6040516103ad91906124a7565b60405180910390f35b6103d060048036038101906103cb919061214c565b61191f565b6040516103e19594939291906120eb565b60405180910390f35b6103f2611a82565b60005b600c805490508110156104df5781600c8281548110610417576104166124c9565b5b906000526020600020906005020160010154036104cc576000600c8281548110610444576104436124c9565b5b90600052602060002090600502019050600d8190806001815401808255809150506001900390600052602060002090600502016000909190919091506000820154816000015560018201548160010155600282018160020190816104a8919061271a565b50600382018160030190816104bd919061271a565b50600482015481600401555050505b80806104d790612831565b9150506103f5565b5050565b600960008281526020019081526020016000206000808201600090556001820160006101000a81549073ffffffffffffffffffffffffffffffffffffffff0219169055505050565b60008060008381526020019081526020016000206000015403610583576040517f08c379a000000000000000000000000000000000000000000000000000000000815260040161057a906128c5565b60405180910390fd5b6000808281526020019081526020016000206000808201600090556001820160006105ae9190611b0b565b6002820160006105be9190611b0b565b600382016000905560048201600090556005820160009055505060005b6002805490508110156107d55781600282815481106105fd576105fc6124c9565b5b906000526020600020906006020160000154036107c25760028181548110610628576106276124c9565b5b906000526020600020906006020160036000820154816000015560018201816001019081610656919061271a565b506002820181600201908161066b919061271a565b50600382015481600301556004820154816004015560058201548160050155905050600260016002805490506106a191906128e5565b815481106106b2576106b16124c9565b5b9060005260206000209060060201600282815481106106d4576106d36124c9565b5b90600052602060002090600602016000820154816000015560018201816001019081610700919061271a565b5060028201816002019081610715919061271a565b5060038201548160030155600482015481600401556005820154816005015590505060036002600160028054905061074d91906128e5565b8154811061075e5761075d6124c9565b5b9060005260206000209060060201600082015481600001556001820181600101908161078a919061271a565b506002820181600201908161079f919061271a565b506003820154816003015560048201548160040155600582015481600501559050505b80806107cd90612831565b9150506105db565b5060028054806107e8576107e7612919565b5b60019003818190600052602060002090600602016000808201600090556001820160006108159190611b0b565b6002820160006108259190611b0b565b6003820160009055600482016000905560058201600090555050905550565b600b600081548092919061085790612831565b9190505550600c6040518060a00160405280600b548152602001868152602001858152602001848152602001838152509080600181540180825580915050600190039060005260206000209060050201600090919091909150600082015181600001556020820151816001015560408201518160020190816108d99190612948565b5060608201518160030190816108ef9190612948565b5060808201518160040155505050505050565b600060205280600052604060002060009150905080600001549080600101805461092b90612527565b80601f016020809104026020016040519081016040528092919081815260200182805461095790612527565b80156109a45780601f10610979576101008083540402835291602001916109a4565b820191906000526020600020905b81548152906001019060200180831161098757829003601f168201915b5050505050908060020180546109b990612527565b80601f01602080910402602001604051908101604052809291908181526020018280546109e590612527565b8015610a325780601f10610a0757610100808354040283529160200191610a32565b820191906000526020600020905b815481529060010190602001808311610a1557829003601f168201915b5050505050908060030154908060040154908060050154905086565b60008060008481526020019081526020016000206000015403610aa6576040517f08c379a0000000000000000000000000000000000000000000000000000000008152600401610a9d906128c5565b60405180910390fd5b60008060008481526020019081526020016000209050818160030154610acc9190612a1a565b816003018190555060005b600280549050811015610b67578360028281548110610af957610af86124c9565b5b90600052602060002090600602016000015403610b5457600060028281548110610b2657610b256124c9565b5b90600052602060002090600602019050838160030154610b469190612a1a565b816003018190555050610b67565b8080610b5f90612831565b915050610ad7565b50505050565b6000806009600084815260200190815260200160002060010160009054906101000a900473ffffffffffffffffffffffffffffffffffffffff168391509150915091565b60405180604001604052808381526020018273ffffffffffffffffffffffffffffffffffffffff16815250600960008481526020019081526020016000206000820151816000015560208201518160010160006101000a81548173ffffffffffffffffffffffffffffffffffffffff021916908373ffffffffffffffffffffffffffffffffffffffff1602179055509050505050565b60006060806000806000600154871115610c96576040517f08c379a0000000000000000000000000000000000000000000000000000000008152600401610c8d90612aaa565b60405180910390fd5b600080888152602001908152602001600020600001546000808981526020019081526020016000206001016000808a81526020019081526020016000206002016000808b8152602001908152602001600020600301546000808c8152602001908152602001600020600401546000808d815260200190815260200160002060050154848054610d2490612527565b80601f0160208091040260200160405190810160405280929190818152602001828054610d5090612527565b8015610d9d5780601f10610d7257610100808354040283529160200191610d9d565b820191906000526020600020905b815481529060010190602001808311610d8057829003601f168201915b50505050509450838054610db090612527565b80601f0160208091040260200160405190810160405280929190818152602001828054610ddc90612527565b8015610e295780601f10610dfe57610100808354040283529160200191610e29565b820191906000526020600020905b815481529060010190602001808311610e0c57829003601f168201915b5050505050935095509550955095509550955091939550919395565b60015481565b60016000815480929190610e5e90612831565b91905055506040518060c0016040528060015481526020018481526020018381526020016000815260200160008152602001828152506000806001548152602001908152602001600020600082015181600001556020820151816001019081610ec79190612948565b506040820151816002019081610edd9190612948565b50606082015181600301556080820151816004015560a0820151816005015590505060026040518060c0016040528060015481526020018581526020018481526020016000815260200160008152602001838152509080600181540180825580915050600190039060005260206000209060060201600090919091909150600082015181600001556020820151816001019081610f7a9190612948565b506040820151816002019081610f909190612948565b50606082015181600301556080820151816004015560a082015181600501555050505050565b60005b600c805490508110156111955781600c8281548110610fdb57610fda6124c9565b5b9060005260206000209060050201600001540361118257600c8181548110611006576110056124c9565b5b9060005260206000209060050201600e60008201548160000155600182015481600101556002820181600201908161103e919061271a565b5060038201816003019081611053919061271a565b5060048201548160040155905050600c6001600c8054905061107591906128e5565b81548110611086576110856124c9565b5b9060005260206000209060050201600c82815481106110a8576110a76124c9565b5b90600052602060002090600502016000820154816000015560018201548160010155600282018160020190816110de919061271a565b50600382018160030190816110f3919061271a565b5060048201548160040155905050600e600c6001600c8054905061111791906128e5565b81548110611128576111276124c9565b5b906000526020600020906005020160008201548160000155600182015481600101556002820181600201908161115e919061271a565b5060038201816003019081611173919061271a565b50600482015481600401559050505b808061118d90612831565b915050610fb9565b50600c8054806111a8576111a7612919565b5b600190038181906000526020600020906005020160008082016000905560018201600090556002820160006111dd9190611b0b565b6003820160006111ed9190611b0b565b60048201600090555050905550565b60096020528060005260406000206000915090508060000154908060010160009054906101000a900473ffffffffffffffffffffffffffffffffffffffff16905082565b600b5481565b600e80600001549080600101549080600201805461126390612527565b80601f016020809104026020016040519081016040528092919081815260200182805461128f90612527565b80156112dc5780601f106112b1576101008083540402835291602001916112dc565b820191906000526020600020905b8154815290600101906020018083116112bf57829003601f168201915b5050505050908060030180546112f190612527565b80601f016020809104026020016040519081016040528092919081815260200182805461131d90612527565b801561136a5780601f1061133f5761010080835404028352916020019161136a565b820191906000526020600020905b81548152906001019060200180831161134d57829003601f168201915b5050505050908060040154905085565b600380600001549080600101805461139190612527565b80601f01602080910402602001604051908101604052809291908181526020018280546113bd90612527565b801561140a5780601f106113df5761010080835404028352916020019161140a565b820191906000526020600020905b8154815290600101906020018083116113ed57829003601f168201915b50505050509080600201805461141f90612527565b80601f016020809104026020016040519081016040528092919081815260200182805461144b90612527565b80156114985780601f1061146d57610100808354040283529160200191611498565b820191906000526020600020905b81548152906001019060200180831161147b57829003601f168201915b5050505050908060030154908060040154908060050154905086565b6000806000848152602001908152602001600020600001540361150c576040517f08c379a0000000000000000000000000000000000000000000000000000000008152600401611503906128c5565b60405180910390fd5b600080600084815260200190815260200160002090508181600401546115329190612aca565b816004018190555060005b6002805490508110156115cd57836002828154811061155f5761155e6124c9565b5b906000526020600020906006020160000154036115ba5760006002828154811061158c5761158b6124c9565b5b906000526020600020906006020190508381600401546115ac9190612aca565b8160040181905550506115cd565b80806115c590612831565b91505061153d565b50505050565b6060600d805480602002602001604051908101604052809291908181526020016000905b8282101561176b57838290600052602060002090600502016040518060a0016040529081600082015481526020016001820154815260200160028201805461163e90612527565b80601f016020809104026020016040519081016040528092919081815260200182805461166a90612527565b80156116b75780601f1061168c576101008083540402835291602001916116b7565b820191906000526020600020905b81548152906001019060200180831161169a57829003601f168201915b505050505081526020016003820180546116d090612527565b80601f01602080910402602001604051908101604052809291908181526020018280546116fc90612527565b80156117495780601f1061171e57610100808354040283529160200191611749565b820191906000526020600020905b81548152906001019060200180831161172c57829003601f168201915b50505050508152602001600482015481525050815260200190600101906115f7565b50505050905090565b60606002805480602002602001604051908101604052809291908181526020016000905b8282101561191657838290600052602060002090600602016040518060c0016040529081600082015481526020016001820180546117d590612527565b80601f016020809104026020016040519081016040528092919081815260200182805461180190612527565b801561184e5780601f106118235761010080835404028352916020019161184e565b820191906000526020600020905b81548152906001019060200180831161183157829003601f168201915b5050505050815260200160028201805461186790612527565b80601f016020809104026020016040519081016040528092919081815260200182805461189390612527565b80156118e05780601f106118b5576101008083540402835291602001916118e0565b820191906000526020600020905b8154815290600101906020018083116118c357829003601f168201915b50505050508152602001600382015481526020016004820154815260200160058201548152505081526020019060010190611798565b50505050905090565b600a602052816000526040600020818154811061193b57600080fd5b90600052602060002090600502016000915091505080600001549080600101549080600201805461196b90612527565b80601f016020809104026020016040519081016040528092919081815260200182805461199790612527565b80156119e45780601f106119b9576101008083540402835291602001916119e4565b820191906000526020600020905b8154815290600101906020018083116119c757829003601f168201915b5050505050908060030180546119f990612527565b80601f0160208091040260200160405190810160405280929190818152602001828054611a2590612527565b8015611a725780601f10611a4757610100808354040283529160200191611a72565b820191906000526020600020905b815481529060010190602001808311611a5557829003601f168201915b5050505050908060040154905085565b60005b600d80549050811015611b0857600d805480611aa457611aa3612919565b5b60019003818190600052602060002090600502016000808201600090556001820160009055600282016000611ad99190611b0b565b600382016000611ae99190611b0b565b6004820160009055505090558080611b0090612831565b915050611a85565b50565b508054611b1790612527565b6000825580601f10611b295750611b48565b601f016020900490600052602060002090810190611b479190611b4b565b5b50565b5b80821115611b64576000816000905550600101611b4c565b5090565b6000604051905090565b600080fd5b600080fd5b6000819050919050565b611b8f81611b7c565b8114611b9a57600080fd5b50565b600081359050611bac81611b86565b92915050565b600060208284031215611bc857611bc7611b72565b5b6000611bd684828501611b9d565b91505092915050565b600080fd5b600080fd5b6000601f19601f8301169050919050565b7f4e487b7100000000000000000000000000000000000000000000000000000000600052604160045260246000fd5b611c3282611be9565b810181811067ffffffffffffffff82111715611c5157611c50611bfa565b5b80604052505050565b6000611c64611b68565b9050611c708282611c29565b919050565b600067ffffffffffffffff821115611c9057611c8f611bfa565b5b611c9982611be9565b9050602081019050919050565b82818337600083830152505050565b6000611cc8611cc384611c75565b611c5a565b905082815260208101848484011115611ce457611ce3611be4565b5b611cef848285611ca6565b509392505050565b600082601f830112611d0c57611d0b611bdf565b5b8135611d1c848260208601611cb5565b91505092915050565b60008060008060808587031215611d3f57611d3e611b72565b5b6000611d4d87828801611b9d565b945050602085013567ffffffffffffffff811115611d6e57611d6d611b77565b5b611d7a87828801611cf7565b935050604085013567ffffffffffffffff811115611d9b57611d9a611b77565b5b611da787828801611cf7565b9250506060611db887828801611b9d565b91505092959194509250565b611dcd81611b7c565b82525050565b600081519050919050565b600082825260208201905092915050565b60005b83811015611e0d578082015181840152602081019050611df2565b60008484015250505050565b6000611e2482611dd3565b611e2e8185611dde565b9350611e3e818560208601611def565b611e4781611be9565b840191505092915050565b6000819050919050565b611e6581611e52565b82525050565b600060c082019050611e806000830189611dc4565b8181036020830152611e928188611e19565b90508181036040830152611ea68187611e19565b9050611eb56060830186611e5c565b611ec26080830185611dc4565b611ecf60a0830184611dc4565b979650505050505050565b611ee381611e52565b8114611eee57600080fd5b50565b600081359050611f0081611eda565b92915050565b60008060408385031215611f1d57611f1c611b72565b5b6000611f2b85828601611b9d565b9250506020611f3c85828601611ef1565b9150509250929050565b600073ffffffffffffffffffffffffffffffffffffffff82169050919050565b6000611f7182611f46565b9050919050565b611f8181611f66565b82525050565b6000604082019050611f9c6000830185611f78565b611fa96020830184611dc4565b9392505050565b611fb981611f66565b8114611fc457600080fd5b50565b600081359050611fd681611fb0565b92915050565b60008060408385031215611ff357611ff2611b72565b5b600061200185828601611b9d565b925050602061201285828601611fc7565b9150509250929050565b60006020820190506120316000830184611dc4565b92915050565b6000806000606084860312156120505761204f611b72565b5b600084013567ffffffffffffffff81111561206e5761206d611b77565b5b61207a86828701611cf7565b935050602084013567ffffffffffffffff81111561209b5761209a611b77565b5b6120a786828701611cf7565b92505060406120b886828701611b9d565b9150509250925092565b60006040820190506120d76000830185611dc4565b6120e46020830184611f78565b9392505050565b600060a0820190506121006000830188611dc4565b61210d6020830187611dc4565b818103604083015261211f8186611e19565b905081810360608301526121338185611e19565b90506121426080830184611dc4565b9695505050505050565b6000806040838503121561216357612162611b72565b5b600061217185828601611b9d565b925050602061218285828601611b9d565b9150509250929050565b600081519050919050565b600082825260208201905092915050565b6000819050602082019050919050565b6121c181611b7c565b82525050565b600082825260208201905092915050565b60006121e382611dd3565b6121ed81856121c7565b93506121fd818560208601611def565b61220681611be9565b840191505092915050565b600060a08301600083015161222960008601826121b8565b50602083015161223c60208601826121b8565b506040830151848203604086015261225482826121d8565b9150506060830151848203606086015261226e82826121d8565b915050608083015161228360808601826121b8565b508091505092915050565b600061229a8383612211565b905092915050565b6000602082019050919050565b60006122ba8261218c565b6122c48185612197565b9350836020820285016122d6856121a8565b8060005b8581101561231257848403895281516122f3858261228e565b94506122fe836122a2565b925060208a019950506001810190506122da565b50829750879550505050505092915050565b6000602082019050818103600083015261233e81846122af565b905092915050565b600081519050919050565b600082825260208201905092915050565b6000819050602082019050919050565b61237b81611e52565b82525050565b600060c08301600083015161239960008601826121b8565b50602083015184820360208601526123b182826121d8565b915050604083015184820360408601526123cb82826121d8565b91505060608301516123e06060860182612372565b5060808301516123f360808601826121b8565b5060a083015161240660a08601826121b8565b508091505092915050565b600061241d8383612381565b905092915050565b6000602082019050919050565b600061243d82612346565b6124478185612351565b93508360208202850161245985612362565b8060005b8581101561249557848403895281516124768582612411565b945061248183612425565b925060208a0199505060018101905061245d565b50829750879550505050505092915050565b600060208201905081810360008301526124c18184612432565b905092915050565b7f4e487b7100000000000000000000000000000000000000000000000000000000600052603260045260246000fd5b7f4e487b7100000000000000000000000000000000000000000000000000000000600052602260045260246000fd5b6000600282049050600182168061253f57607f821691505b602082108103612552576125516124f8565b5b50919050565b60008154905061256781612527565b9050919050565b60008190508160005260206000209050919050565b60006020601f8301049050919050565b600082821b905092915050565b6000600883026125d07fffffffffffffffffffffffffffffffffffffffffffffffffffffffffffffffff82612593565b6125da8683612593565b95508019841693508086168417925050509392505050565b6000819050919050565b600061261761261261260d84611b7c565b6125f2565b611b7c565b9050919050565b6000819050919050565b612631836125fc565b61264561263d8261261e565b8484546125a0565b825550505050565b600090565b61265a61264d565b612665818484612628565b505050565b5b818110156126895761267e600082612652565b60018101905061266b565b5050565b601f8211156126ce5761269f8161256e565b6126a884612583565b810160208510156126b7578190505b6126cb6126c385612583565b83018261266a565b50505b505050565b600082821c905092915050565b60006126f1600019846008026126d3565b1980831691505092915050565b600061270a83836126e0565b9150826002028217905092915050565b818103612728575050612800565b61273182612558565b67ffffffffffffffff81111561274a57612749611bfa565b5b6127548254612527565b61275f82828561268d565b6000601f83116001811461278e576000841561277c578287015490505b61278685826126fe565b8655506127f9565b601f19841661279c8761256e565b96506127a78661256e565b60005b828110156127cf578489015482556001820191506001850194506020810190506127aa565b868310156127ec57848901546127e8601f8916826126e0565b8355505b6001600288020188555050505b5050505050505b565b7f4e487b7100000000000000000000000000000000000000000000000000000000600052601160045260246000fd5b600061283c82611b7c565b91507fffffffffffffffffffffffffffffffffffffffffffffffffffffffffffffffff820361286e5761286d612802565b5b600182019050919050565b7f506f7374206973206e6f7420617661696c61626c650000000000000000000000600082015250565b60006128af601583611dde565b91506128ba82612879565b602082019050919050565b600060208201905081810360008301526128de816128a2565b9050919050565b60006128f082611b7c565b91506128fb83611b7c565b925082820390508181111561291357612912612802565b5b92915050565b7f4e487b7100000000000000000000000000000000000000000000000000000000600052603160045260246000fd5b61295182611dd3565b67ffffffffffffffff81111561296a57612969611bfa565b5b6129748254612527565b61297f82828561268d565b600060209050601f8311600181146129b257600084156129a0578287015190505b6129aa85826126fe565b865550612a12565b601f1984166129c08661256e565b60005b828110156129e8578489015182556001820191506020850194506020810190506129c3565b86831015612a055784890151612a01601f8916826126e0565b8355505b6001600288020188555050505b505050505050565b6000612a2582611e52565b9150612a3083611e52565b925082820190508281121560008312168382126000841215161715612a5857612a57612802565b5b92915050565b7f496e76616c696420706f73742049440000000000000000000000000000000000600082015250565b6000612a94600f83611dde565b9150612a9f82612a5e565b602082019050919050565b60006020820190508181036000830152612ac381612a87565b9050919050565b6000612ad582611b7c565b9150612ae083611b7c565b9250828201905080821115612af857612af7612802565b5b9291505056fea26469706673582212202f4452f53fe5d81829125deefd1dbb6bedf1da1b026d2b53bf58f325a5562d5364736f6c63430008130033",
  "immutableReferences": {},
  "source": "// SPDX-License-Identifier: UNLICENSED\r\npragma solidity ^0.8.0;\r\n\r\ncontract PostEntity {\r\n\r\n    struct Post {\r\n        uint256 postId;\r\n        string userId;\r\n        string content;\r\n        int likes;\r\n        uint comments;\r\n        uint timestamp;\r\n    }\r\n\r\n    mapping(uint256 => Post) public posts;\r\n    uint256 public postIdCounter;\r\n\r\n    Post [] listPost;\r\n\r\n    Post public removeMe;\r\n\r\n    struct Like {\r\n        uint postId;\r\n        address userId;\r\n    }\r\n\r\n    mapping(uint => Like) public likes;\r\n\r\n    struct Comment {\r\n        uint commentId;\r\n        uint postId;\r\n        string userId;\r\n        string content;\r\n        uint timestamp;\r\n    }\r\n\r\n    mapping(uint => Comment []) public comments;\r\n\r\n    uint256 public commentIdCounter;\r\n\r\n    Comment [] listComment;\r\n    Comment [] newComment;\r\n\r\n    Comment public removeComment;\r\n\r\n    function createPost(string memory _userId, string memory _content, uint _timestamp) public {\r\n        postIdCounter++;\r\n        posts[postIdCounter] = Post(postIdCounter, _userId, _content, 0, 0, _timestamp);\r\n        listPost.push(Post(postIdCounter, _userId, _content, 0, 0, _timestamp));\r\n    }\r\n\r\n    function getPost(uint256 _postId) public view returns (uint256, string memory, string memory, int, uint, uint) {\r\n        require(_postId <= postIdCounter, \"Invalid post ID\");\r\n        return (posts[_postId].postId, posts[_postId].userId, posts[_postId].content, posts[_postId].likes, posts[_postId].comments, posts[_postId].timestamp);\r\n    }\r\n\r\n    function getAllPost() public view returns (Post[] memory){\r\n        return listPost;\r\n    }\r\n\r\n    function getLike(uint _postId) public view returns (address, uint) {\r\n        return (likes[_postId].userId, _postId);\r\n    }\r\n\r\n    function addAddressInLike(uint _postId, address _userId) public {\r\n        likes[_postId] = Like(_postId, _userId);\r\n    }\r\n\r\n    function updateLikeInPost(uint _id, int like) public {\r\n        require(posts[_id].postId != 0, \"Post is not available\");\r\n\r\n        Post storage newPostMap = posts[_id];\r\n        newPostMap.likes = newPostMap.likes + like;\r\n\r\n        for (uint i = 0; i < listPost.length; i++) {\r\n            if (listPost[i].postId == _id) {\r\n                Post storage newPost = listPost[i];\r\n                newPost.likes = newPost.likes + like;\r\n                break;\r\n            }\r\n        }\r\n    }\r\n\r\n    function updateCommentInPost(uint _id, uint256 comment) public {\r\n        require(posts[_id].postId != 0, \"Post is not available\");\r\n\r\n        Post storage newPostMap = posts[_id];\r\n        newPostMap.comments = newPostMap.comments + comment;\r\n\r\n        for (uint i = 0; i < listPost.length; i++) {\r\n            if (listPost[i].postId == _id) {\r\n                Post storage newPost = listPost[i];\r\n                newPost.comments = newPost.comments + comment;\r\n                break;\r\n            }\r\n        }\r\n    }\r\n\r\n    function deleteLike(uint256 _id) public {\r\n        delete likes[_id];\r\n    }\r\n\r\n    function deletePost(uint256 _id) public {\r\n        require(posts[_id].postId != 0, \"Post is not available\");\r\n        delete posts[_id];\r\n        for (uint i = 0; i < listPost.length; i++) {\r\n            if (listPost[i].postId == _id) {\r\n                removeMe = listPost[i];\r\n                listPost[i] = listPost[listPost.length - 1];\r\n                listPost[listPost.length - 1] = removeMe;\r\n            }\r\n        }\r\n        listPost.pop();\r\n    }\r\n\r\n    function createComment(uint _postId, string memory _userId, string memory _content, uint _timestamp) public {\r\n        commentIdCounter++;\r\n        listComment.push(Comment(commentIdCounter, _postId, _userId, _content, _timestamp));\r\n    }\r\n\r\n    function getComment(uint _postId) public {\r\n        clearNewComment();\r\n\r\n        for (uint i = 0; i < listComment.length; i++) {\r\n            if (listComment[i].postId == _postId) {\r\n                Comment storage c = listComment[i];\r\n                newComment.push(c);\r\n            }\r\n        }\r\n    }\r\n\r\n    function getComment() public view returns (Comment [] memory) {\r\n        return newComment;\r\n    }\r\n\r\n    function clearNewComment() private {\r\n        for (uint i = 0; i < newComment.length; i++) {\r\n            newComment.pop();\r\n        }\r\n    }\r\n\r\n    function deleteComment(uint256 _id) public {\r\n        for (uint i = 0; i < listComment.length; i++) {\r\n            if (listComment[i].commentId == _id) {\r\n                removeComment = listComment[i];\r\n                listComment[i] = listComment[listComment.length - 1];\r\n                listComment[listComment.length - 1] = removeComment;\r\n            }\r\n        }\r\n        listComment.pop();\r\n    }\r\n}",
  "sourcePath": "D:\\Project Blockchain\\PolygonHackathon\\share-dapp\\contracts\\PostEntity.sol",
  "compiler": {
    "name": "solc",
    "version": "0.8.19+commit.7dd6d404.Emscripten.clang"
  },
  "schemaVersion": "3.4.13",
  "updatedAt": "2023-06-03T02:24:03.788Z",
  "networkType": "ethereum",
  "devdoc": {
    "kind": "dev",
    "methods": {},
    "version": 1
  },
  "userdoc": {
    "kind": "user",
    "methods": {},
    "version": 1
  }
}